:020000040000FA
:100C00002BEF14F0D9CFE5FFE1CFD9FF00C0E5FF0E
:100C100001C0E5FF02C0E5FF03C0E5FF04C0E5FF3A
:100C200005C0E5FF06C0E5FF07C0E5FF08C0E5FF1A
:100C300009C0E5FF0AC0E5FF0BC0E5FF0CC0E5FFFA
:100C40000DC0E5FF0EC0E5FF0FC0E5FF020EDBCFD4
:100C500000F0030EDBCF01F0040EDBCF02F0050E37
:100C6000DBCF03F0060EDBCF04F0070EDBCF05F081
:100C7000080EDBCF06F0090EDBCF07F0020E096E7F
:100C8000000E086E800E0A6E035004100510061048
:100C900016E1300EE56EF2CFE5FFF29E0500BA0ECA
:100CA000FD6E0C0EFE6E000EFF6EE4BEF28E02C0F4
:100CB000FBFF01C0FAFF0050F96EE652C5D00750A5
:100CC0000A0A28E1D88006AED89024E32D0EE56EFE
:100CD000F2CFE5FFF29E0500F40EFD6E0C0EFE6EE7
:100CE000000EFF6EE4BEF28E02C0FBFF01C0FAFFF1
:100CF0000050F96EE652061C0E6E051C0D6E041CAB
:100D00000C6E031C0B6E0B2A04E10C2A02E10D4A47
:100D10000E2A08D003500B6E04500C6E05500D6E59
:100D200006500E6E0B500C100D100E10D8B457D08C
:100D300007C003F0046A056A066AE56AE56AE56ABF
:100D40000350E56E0E50E56E0D50E56E0C50E56EED
:100D50000B50E56E5FEC0EF00F6E080EE1260650AC
:100D6000E56E0550E56E0450E56E0350E56E0E50DD
:100D7000E56E0D50E56E0C50E56E0B50E56EFCEC2B
:100D80000EF00B6EF3CF0CF0F4CF0DF0E9CF0EF0B8
:100D9000080EE1260A0E0F5C12E20F50036E300EB1
:100DA000032603C0E5FF08C0E9FF09C0F3FF0A50AE
:100DB00063EC17F0082A02E3094A0A2AB3D7370E70
:100DC0000F260FC0E5FF08C0E9FF09C0F3FF0A5076
:100DD00063EC17F0082A02E3094A0A2AA3D708C0DD
:100DE00003F009C004F00AC005F0020E076E000E01
:100DF000066E800E086E0550085C05E10450075C25
:100E000002E10350065C20E2FF0E032604220522C5
:100E100003C0E9FF04C0F3FF055027EC17F0E56EAF
:100E2000F2CFE5FFF29E0500440EFD6E0E0EFE6E43
:100E3000000EFF6EE4BEF28E02C0FBFF01C0FAFF9F
:100E40000050F96EE652D1D7E4CF0FF0E4CF0EF0A8
:100E5000E4CF0DF0E4CF0CF0E4CF0BF0E4CF0AF0D8
:100E6000E4CF09F0E4CF08F0E4CF07F0E4CF06F0D8
:100E7000E4CF05F0E4CF04F0E4CF03F0E4CF02F0D8
:100E8000E4CF01F0E4CF00F0E4CFD9FF1200D9CFD6
:100E9000E5FFE1CFD9FF00C0E5FF01C0E5FF02C0DB
:100EA000E5FF03C0E5FF04C0E5FF020EDBCF00F065
:100EB000030EDBCF01F0F00E0024026E036A2B0E4E
:100EC0000322046A000E042202C0F6FF03C0F7FFEB
:100ED00004C0F8FF0900F5CF02F0050E025CD8B09F
:100EE000F8D0FA6AFB6A0234FA36E834FA36FC0BB8
:100EF000000FE56E0F0EFA22000EFB22E450F96E91
:100F00008AEF07F0B7EF07F0E4EF07F011EF08F012
:100F10003EEF08F0015015E0D20E0024026E036A85
:100F20002B0E0322046A000E042202C0F6FF03C047
:100F3000F7FF04C0F8FF0900F5CF02F0025092124B
:100F4000C8D0D20E0024026E036A2B0E0322046A5C
:100F5000000E042202C0F6FF03C0F7FF04C0F8FF32
:100F60000900F5CF02F00250FF089216B2D00150EE
:100F700015E0D20E0024026E036A2B0E0322046ACF
:100F8000000E042202C0F6FF03C0F7FF04C0F8FF02
:100F90000900F5CF02F0025093129BD0D20E00242C
:100FA000026E036A2B0E0322046A000E042202C0A2
:100FB000F6FF03C0F7FF04C0F8FF0900F5CF02F009
:100FC0000250FF08931685D0015015E0D20E002480
:100FD000026E036A2B0E0322046A000E042202C072
:100FE000F6FF03C0F7FF04C0F8FF0900F5CF02F0D9
:100FF000025094126ED0D20E0024026E036A2B0EA1
:101000000322046A000E042202C0F6FF03C0F7FFA9
:1010100004C0F8FF0900F5CF02F00250FF08941653
:1010200058D0015015E0D20E0024026E036A2B0E38
:101030000322046A000E042202C0F6FF03C0F7FF79
:1010400004C0F8FF0900F5CF02F00250951241D01C
:10105000D20E0024026E036A2B0E0322046A000ED5
:10106000042202C0F6FF03C0F7FF04C0F8FF090026
:10107000F5CF02F00250FF0895162BD0015015E075
:10108000D20E0024016E026A2B0E0222036A000EA9
:10109000032201C0F6FF02C0F7FF03C0F8FF0900FA
:1010A000F5CF01F00150961214D0016A026AD20EF7
:1010B00000262B0E0122000E022200C0F6FF01C006
:1010C000F7FF02C0F8FF0900F5CF00F00050FF085D
:1010D0009616E4CF04F0E4CF03F0E4CF02F0E4CFBF
:1010E00001F0E4CF00F0E4CFD9FF1200D9CFE5FF43
:1010F000E1CFD9FF00C0E5FF01C0E5FF02C0E5FF79
:1011000003C0E5FF04C0E5FF020EDBCF00F0030ED5
:10111000DBCF01F0F00E0024026E036A2B0E0322D7
:10112000046A000E042202C0F6FF03C0F7FF04C0E9
:10113000F8FF0900F5CF02F0050E025CD8B0F8D038
:10114000FA6AFB6A0234FA36E834FA36FC0B5E0FB0
:10115000E56E110EFA22000EFB22E450F96EB9EF93
:1011600008F0E6EF08F013EF09F040EF09F06DEF3B
:1011700009F0015015E0D20E0024026E036A2B0E16
:101180000322046A000E042202C0F6FF03C0F7FF28
:1011900004C0F8FF0900F5CF02F002508912C8D050
:1011A000D20E0024026E036A2B0E0322046A000E84
:1011B000042202C0F6FF03C0F7FF04C0F8FF0900D5
:1011C000F5CF02F00250FF088916B2D0015015E0A9
:1011D000D20E0024026E036A2B0E0322046A000E54
:1011E000042202C0F6FF03C0F7FF04C0F8FF0900A5
:1011F000F5CF02F002508A129BD0D20E0024026E6C
:10120000036A2B0E0322046A000E042202C0F6FFBA
:1012100003C0F7FF04C0F8FF0900F5CF02F0025049
:10122000FF088A1685D0015015E0D20E0024026E08
:10123000036A2B0E0322046A000E042202C0F6FF8A
:1012400003C0F7FF04C0F8FF0900F5CF02F0025019
:101250008B126ED0D20E0024026E036A2B0E032274
:10126000046A000E042202C0F6FF03C0F7FF04C0A8
:10127000F8FF0900F5CF02F00250FF088B1658D096
:10128000015015E0D20E0024026E036A2B0E0322D9
:10129000046A000E042202C0F6FF03C0F7FF04C078
:1012A000F8FF0900F5CF02F002508C1241D0D20EA7
:1012B0000024026E036A2B0E0322046A000E04222D
:1012C00002C0F6FF03C0F7FF04C0F8FF0900F5CF26
:1012D00002F00250FF088C162BD0015015E0D20E00
:1012E0000024016E026A2B0E0222036A000E032202
:1012F00001C0F6FF02C0F7FF03C0F8FF0900F5CFF9
:1013000001F001508D1214D0016A026AD20E00263B
:101310002B0E0122000E022200C0F6FF01C0F7FFD3
:1013200002C0F8FF0900F5CF00F00050FF088D164D
:10133000E4CF04F0E4CF03F0E4CF02F0E4CF01F017
:10134000E4CF00F0E4CFD9FF1200D9CFE5FFE1CF21
:10135000D9FF00C0E5FF01C0E5FF02C0E5FF03C003
:10136000E5FF04C0E5FF05C0E5FF06C0E5FF07C0D7
:10137000E5FF020EDBCF00F0030EDBCF01F0040E21
:10138000DBCF02F0050EDBCF03F0060EDBCF04F05F
:10139000070EDBCF05F0080EDBCF06F0090EDBCF22
:1013A00007F000500201256F0150266F0250276F91
:1013B0000350286F04500201296F05502A6F065010
:1013C0002B6F07502C6F0201255102012B03F4CF24
:1013D00001F0F3CF00F0005002012F6F0150306F89
:1013E0000201255102012903F4CF01F0F3CF00F0EF
:1013F000005002012D6F01502E6F02012851020191
:101400002903F3CF00F00201305100260050306F65
:101410000201275102012A03F3CF00F002013051EB
:1014200000260050306F0201275102012903F4CF3A
:1014300001F0F3CF00F002012F51002630510122BC
:1014400000502F6F0150306F0201265102012A0314
:10145000F4CF01F0F3CF00F002012F5100263051FC
:10146000012200502F6F0150306F020126510201FE
:101470002B03F3CF00F000500201346F020126511C
:1014800002012903F4CF01F0F3CF00F00050020174
:10149000326F0150336F0201255102012C03F3CF4B
:1014A00000F000500201386F0201255102012A03A9
:1014B000F4CF01F0F3CF00F000500201366F01507D
:1014C000376F0201316B0201356B020131510201AC
:1014D0002D25006E0201325102012E21016E020102
:1014E000335102012F21026E0201345102013021D9
:1014F000036E00502D6F01502E6F02502F6F03505E
:10150000306F0201355102012D25006E0201365166
:1015100002012E21016E0201375102012F21026EBC
:101520000201385102013021036E03C0E9FF02C0FD
:10153000F4FF01C0F3FF0050E4CF07F0E4CF06F062
:10154000E4CF05F0E4CF04F0E4CF03F0E4CF02F001
:10155000E4CF01F0E4CF00F0E4CFD9FF1200D9CFFF
:10156000E5FFE1CFD9FF00C0E5FF01C0E5FF02C004
:10157000E5FF03C0E5FF04C0E5FF05C0E5FF06C0C9
:10158000E5FF07C0E5FF08C0E5FF09C0E5FF0AC0A9
:10159000E5FF0BC0E5FF0CC0E5FF0DC0E5FF0EC089
:1015A000E5FF0FC0E5FF020EDBCF00F0030EDBCF3F
:1015B00001F0040EDBCF02F0050EDBCF03F0060EC8
:1015C000DBCF04F0070EDBCF05F0080EDBCF06F013
:1015D000090EDBCF07F00A0EDBCF08F00B0EDBCFD6
:1015E00009F00C0EDBCF0AF00D0EDBCF0BF00B5029
:1015F000800FF36E0750800FF35C08E106500A5C21
:1016000005E10550095C02E10450085C18E208C0DD
:101610000CF009C00DF00AC00EF00BC00FF004C0B2
:1016200008F005C009F006C00AF007C00BF00CC0B6
:1016300004F00DC005F00EC006F00FC007F00B500F
:10164000800FF36E0350800FF35C08E102500A5CD8
:1016500005E10150095C02E10050085C08E20BC0A2
:10166000E9FF0AC0F4FF09C0F3FF08501FD0035080
:10167000800FF36E0750800FF35C08E10650025CA8
:1016800005E10550015C02E10450005C08E207C07E
:10169000E9FF06C0F4FF05C0F3FF045007D003C004
:1016A000E9FF02C0F4FF01C0F3FF0050E4CF0FF0E8
:1016B000E4CF0EF0E4CF0DF0E4CF0CF0E4CF0BF06C
:1016C000E4CF0AF0E4CF09F0E4CF08F0E4CF07F06C
:1016D000E4CF06F0E4CF05F0E4CF04F0E4CF03F06C
:1016E000E4CF02F0E4CF01F0E4CF00F0E4CFD9FF83
:1016F0001200D9CFE5FFE1CFD9FF00C0E5FF01C05F
:10170000E5FF02C0E5FF03C0E5FF04C0E5FF05C03B
:10171000E5FF06C0E5FF07C0E5FF08C0E5FF09C01B
:10172000E5FF0AC0E5FF0BC0E5FF0CC0E5FF020EB8
:10173000DBCF00F0030EDBCF01F0040EDBCF02F0B5
:10174000050EDBCF03F0060EDBCF04F0070EDBCF78
:1017500005F0080EDBCF06F0090EDBCF07F0D880CE
:1017600003AED890086A083608500FE0031C0C6ED0
:10177000021C0B6E011C0A6E001C096E092A0DE189
:101780000A2A0BE10B4A0C2A08D000C009F001C05C
:101790000AF002C00BF003C00CF0D88007AED8905E
:1017A0000FE3071C036E061C026E051C016E041C71
:1017B000006E002A0DE1012A0BE1024A032A08D03B
:1017C00004C000F005C001F006C002F007C003F03D
:1017D0000350E56E0250E56E0150E56E0050E56E77
:1017E0000C50E56E0B50E56E0A50E56E0950E56E43
:1017F0005FEC0EF0006EF3CF01F0F4CF02F0E9CF12
:1018000003F0080EE126085016E0031C076E021CC8
:10181000066E011C056E001C046E042A04E1052AF4
:1018200002E1064A072A07C0E9FF06C0F4FF05C027
:10183000F3FF045007D003C0E9FF02C0F4FF01C06A
:10184000F3FF0050E4CF0CF0E4CF0BF0E4CF0AF04C
:10185000E4CF09F0E4CF08F0E4CF07F0E4CF06F0DE
:10186000E4CF05F0E4CF04F0E4CF03F0E4CF02F0DE
:10187000E4CF01F0E4CF00F0E4CFD9FF1200D9CFDC
:10188000E5FFE1CFD9FF00C0E5FF01C0E5FF020E93
:10189000DBCF00F0030EDBCF01F0020E005C02E3B1
:1018A0000201498700C04AF20201466B015005E07F
:1018B0000050010A02E102014985E56A0F0EE56E5A
:1018C000FBEC0CF0E652E652E56A02014851E56E87
:1018D00076EC08F0E652E652E56A02014751E56E01
:1018E00076EC08F0E652E652020149A929D0200E12
:1018F0004911E56AE56E2FEC15F0E652E652E56A0D
:10190000050EE56EFBEC0CF0E652E652200E0201ED
:101910004911E56AE56E2FEC15F0E652E652E56AEC
:10192000050EE56EFBEC0CF0E652E652200E0201CD
:101930004911E56AE56E2FEC15F0E652E65229D022
:10194000030EE56E87EC13F0E652E56A050EE56ED0
:10195000FBEC0CF0E652E652030EE56E87EC13F05A
:10196000E652E56A960EE56E30EC13F0E652E6526A
:10197000030EE56E87EC13F0E652E56A960EE56E0F
:1019800030EC13F0E652E652020EE56E87EC13F0EF
:10199000E652200E02014911E56AE56E2FEC15F0C2
:1019A000E652E652040E0201436FE56A0C0EE56E44
:1019B0002FEC15F0E652E652E56A010EE56E2FECCB
:1019C00015F0E652E652E56A050EE56EFBEC0CF00A
:1019D000E652E652020E0201446FE56A060EE56E1B
:1019E0002FEC15F0E652E652E4CF01F0E4CF00F020
:1019F000E4CFD9FF1200D9CFE5FFE1CFD9FF00C076
:101A0000E5FF01C0E5FF02C0E5FF03C0E5FF04C03C
:101A1000E5FF05C0E5FF06C0E5FF07C0E5FF020ED4
:101A2000DBCF00F0030EDBCF01F0026AF2BE022A28
:101A3000036AF2BC032A03500226E56AE56A0F0E28
:101A4000E56EA00EE56E02010F51E56E0E51E56EDA
:101A50000D51E56E0C51E56E8CEC0FF0036EF3CF7B
:101A600004F0080EE126DE0E0326D8B0042A03C0D7
:101A700005F004C006F0E56AE56A070EE56E050E9E
:101A8000E56EE56AE56A0650E56E0550E56E8CEC9C
:101A90000FF0056E080EE12605C006F0070EE56E94
:101AA000050EE56EE56A0650E56E1BEC10F0066E5D
:101AB000F3CF07F0040EE1260650035E0750045AE8
:101AC000050E0326D8B0042AE56AE56AE56A070E22
:101AD000E56EE56AE56A0450E56E0350E56E8CEC50
:101AE0000FF0036E080EE126025002E0F29EF29C17
:101AF000032A0528046E0050FF0F056EFF0E01201B
:101B0000066E05C000F006C001F00550061011E099
:101B100003C005F004C006F00604076E07C006F017
:101B20000750E9E00504076E07C005F00750F4E030
:101B3000F9D7025002E0F28EF28CE4CF07F0E4CF46
:101B400006F0E4CF05F0E4CF04F0E4CF03F0E4CFF7
:101B500002F0E4CF01F0E4CF00F0E4CFD9FF1200AF
:101B6000D9CFE5FFE1CFD9FF00C0E5FF01C0E5FF18
:101B700002C0E5FF03C0E5FF04C0E5FF05C0E5FFC7
:101B800006C0E5FF07C0E5FF020EDBCF48F2030EFB
:101B9000DBCF47F2040EDBCF00F0050EDBCF01F008
:101BA000060EDBCF02F0070EDBCF03F0080EDBCF13
:101BB00004F0090EDBCF05F00A0EDBCF06F00B0EAA
:101BC000DBCF07F000500201156F0150166F025075
:101BD000176F0350186F0450196F05501A6F065095
:101BE0001B6F07501C6FE56A02014851E56E47EC18
:101BF00007F0E652E652E56A02014751E56E47EC0E
:101C000007F0E652E652046A056A015000260550C4
:101C10000422016A025000260150042203500026CB
:101C200001500422005004101CE10201496B040E13
:101C3000006E150E0024016E026A020E022201C01F
:101C4000E9FF02C0EAFFEFCF01F0E56A0150E56E5F
:101C500047EC07F0E652E652002A080E005CE9E382
:101C60001BD0100E0201496F006A150E0024016E90
:101C7000026A020E022201C0E9FF02C0EAFFEFCFB2
:101C800001F0E56A0150E56E47EC07F0E652E652D6
:101C9000002A080E005CE9E3E4CF07F0E4CF06F089
:101CA000E4CF05F0E4CF04F0E4CF03F0E4CF02F09A
:101CB000E4CF01F0E4CF00F0E4CFD9FF1200D9CF98
:101CC000E5FFE1CFD9FF00C0E5FF01C0E5FF02C09D
:101CD000E5FF03C0E5FF04C0E5FF05C0E5FF06C062
:101CE000E5FF07C0E5FF08C0E5FF09C0E5FF0AC042
:101CF000E5FF020EDBCF00F0030EDBCF01F0040E98
:101D0000DBCF02F0050EDBCF03F0060EDBCF04F0D5
:101D1000070EDBCF05F0080EDBCF06F0090EDBCF98
:101D200007F0086A045005100610071005E1E9687D
:101D3000F468F368E86847D0096A0750800BE84404
:101D40000A6E0A501BE10450042605360636073693
:101D50000750035C08E10650025C05E10550015C98
:101D600002E10450005C06E2D890073206320532E8
:101D7000043204D0092A09C008F0DFD70750035CF9
:101D800008E10650025C05E10550015C02E10450E7
:101D9000005C08E30450005E0550015A0650025AE8
:101DA0000750035AD890073206320532043208C071
:101DB00009F008060950E2E103C0E9FF02C0F4FFA0
:101DC00001C0F3FF0050E4CF0AF0E4CF09F0E4CF04
:101DD00008F0E4CF07F0E4CF06F0E4CF05F0E4CF5D
:101DE00004F0E4CF03F0E4CF02F0E4CF01F0E4CF5D
:101DF00000F0E4CFD9FF1200D9CFE5FFE1CFD9FF42
:101E000000C0E5FF01C0E5FF02C0E5FF03C0E5FF3C
:101E100004C0E5FF05C0E5FF06C0E5FF07C0E5FF1C
:101E200008C0E5FF09C0E5FF0AC0E5FF0BC0E5FFFC
:101E30000CC0E5FF0DC0E5FF020EDBCF00F0030E86
:101E4000DBCF01F0040EDBCF02F0050EDBCF03F099
:101E5000060EDBCF04F0070EDBCF05F0080EDBCF5C
:101E600006F0090EDBCF07F0086A096A0A6A0B6AF6
:101E7000200E0C6E0350800BE8440D6E00500026BF
:101E80000136023603360850082609360A360B3664
:101E90000D50D8A4088007500B5C08E106500A5C7E
:101EA00005E10550095C02E10450085C09E30450B7
:101EB000085E0550095A06500A5A07500B5A00800E
:101EC0000C040D6E0DC00CF00D50D4E103C0E9FF01
:101ED00002C0F4FF01C0F3FF0050E4CF0DF0E4CFE7
:101EE0000CF0E4CF0BF0E4CF0AF0E4CF09F0E4CF3C
:101EF00008F0E4CF07F0E4CF06F0E4CF05F0E4CF3C
:101F000004F0E4CF03F0E4CF02F0E4CF01F0E4CF3B
:101F100000F0E4CFD9FF1200D9CFE5FFE1CFD9FF20
:101F200000C0E5FF01C0E5FF02C0E5FF03C0E5FF1B
:101F300004C0E5FF05C0E5FF06C0E5FF07C0E5FFFB
:101F400008C0E5FF09C0E5FF0AC0E5FF0BC0E5FFDB
:101F50000CC0E5FF020EDBCF00F0030EDBCF01F07B
:101F6000040EDBCF02F0050EDBCF03F0060EDBCF55
:101F700004F0070EDBCF05F0080EDBCF06F0090EEC
:101F8000DBCF07F0086A096A0A6A0B6A0450051079
:101F9000061007102CE0010E0C6E07B607D0045097
:101FA00004260536063607360C2AF7D708500826C9
:101FB00009360A360B360750035C08E10650025C0E
:101FC00005E10550015C02E10450005C09E30450A6
:101FD000005E0550015A0650025A0750035A088005
:101FE000D89007320632053204320C2EDFD70BC0F0
:101FF000E9FF0AC0F4FF09C0F3FF0850E4CF0CF07A
:10200000E4CF0BF0E4CF0AF0E4CF09F0E4CF08F01E
:10201000E4CF07F0E4CF06F0E4CF05F0E4CF04F01E
:10202000E4CF03F0E4CF02F0E4CF01F0E4CF00F01E
:10203000E4CFD9FF1200D9CFE5FFE1CFD9FF00C02F
:10204000E5FF01C0E5FF02C0E5FF03C0E5FF04C0F6
:10205000E5FF020EDBCF39F2030EDBCF3AF2040EBE
:10206000DBCF3BF2050EDBCF3CF2390E006E020EE9
:10207000016E00C0E9FF01C0EAFFEFCF00F03B0EA8
:10208000016E020E026E01C0E9FF02C0EAFFEFCF4F
:1020900001F000500102F4CF02F0F3CF00F0390E4E
:1020A000016E020E036E01C0E9FF03C0EAFFEFCF2D
:1020B00001F03B0E036E020E046E034A042A03C0B5
:1020C000E9FF04C0EAFFEFCF03F001500302F3CFB2
:1020D00001F00150016A046E0150002604500222F2
:1020E000390E016E020E036E014A032A01C0E9FF98
:1020F00003C0EAFFEFCF01F03B0E036E020E046E49
:1021000003C0E9FF04C0EAFFEFCF03F00150030270
:10211000F3CF01F00150016A046E01500026045013
:10212000022202C0F3FF0050E4CF04F0E4CF03F03A
:10213000E4CF02F0E4CF01F0E4CF00F0E4CFD9FF28
:102140001200D9CFE5FFE1CFD9FF00C0E5FF01C004
:10215000E5FF02C0E5FF03C0E5FF04C0E5FF05C0E1
:10216000E5FF06C0E5FF07C0E5FF08C0E5FF09C0C1
:10217000E5FF020EDBCF00F0030EDBCF01F0040E13
:10218000DBCF02F0050EDBCF03F0060EDBCF04F051
:10219000070EDBCF05F0080EDBCF06F0090EDBCF14
:1021A00007F00A0EDBCF08F00B0EDBCF09F0025070
:1021B000005E0350015A0650085E0750095A095044
:1021C000E56E0850E56E0150E56E0050E56EDBEC03
:1021D00013F0006EF3CF01F0040EE1260250045C10
:1021E000026E03500558E56E0250E56E0150E56E33
:1021F0000050E56E1FEC11F0006EF3CF01F0040EFD
:10220000E126005006260150072207C0F3FF0650C2
:10221000E4CF09F0E4CF08F0E4CF07F0E4CF06F014
:10222000E4CF05F0E4CF04F0E4CF03F0E4CF02F014
:10223000E4CF01F0E4CF00F0E4CFD9FF1200D9CF12
:10224000E5FFE1CFD9FF00C0E5FF01C0E5FF02C017
:10225000E5FF03C0E5FF04C0E5FF05C0E5FF06C0DC
:10226000E5FF07C0E5FF020EDBCF00F0030EDBCF7A
:1022700001F0040EDBCF02F0050EDBCF03F0D880B7
:1022800001AED890046A0436045007E0011C066EC3
:10229000001C056E054A062A04D000C005F001C0E6
:1022A00006F0D88003AED890006A0036005007E0F0
:1022B000031C076E021C016E014A072A04D002C0EB
:1022C00001F003C007F00750E56E0150E56E0650BF
:1022D000E56E0550E56ED8EC12F0016EF3CF02F01A
:1022E000040EE1260050041A04500AE0021C036E9A
:1022F000011C006E004A032A03C0F3FF005003D004
:1023000002C0F3FF0150E4CF07F0E4CF06F0E4CFC2
:1023100005F0E4CF04F0E4CF03F0E4CF02F0E4CF23
:1023200001F0E4CF00F0E4CFD9FF1200D9CFE5FFF0
:10233000E1CFD9FF00C0E5FF01C0E5FF02C0E5FF26
:1023400003C0E5FF04C0E5FF05C0E5FF06C0E5FFEB
:10235000020EDBCF00F0030EDBCF01F0040EDBCF6B
:1023600002F000C0E9FF01C0F3FF025050EC16F08C
:10237000036EF3CF04F0F4CF05F0E9CF06F006507A
:10238000E56E0550E56E0450E56E0350E56E410EB6
:10239000E56EC60EE56E4E0EE56E6D0EE56EA5ECB5
:1023A00009F0036EF3CF04F0F4CF05F0E9CF06F0A7
:1023B000080EE126390E0326300E0422000E0522F7
:1023C000062203C0E5FF04C0F4FF05C0F6FF06C007
:1023D000F7FF00C0E9FF01C0F3FF025016EC17F051
:1023E000069E06C0E9FF05C0F4FF04C0F3FF0350DA
:1023F000E4CF06F0E4CF05F0E4CF04F0E4CF03F03F
:10240000E4CF02F0E4CF01F0E4CF00F0E4CFD9FF55
:102410001200D9CFE5FFE1CFD9FF00C0E5FF01C031
:10242000E5FF02C0E5FF03C0E5FF04C0E5FF05C00E
:10243000E5FF06C0E5FF020EDBCF00F0030EDBCFA9
:1024400001F0040EDBCF02F000C0E9FF01C0F3FF92
:10245000025050EC16F00201216FF3CF22F2F4CFBC
:1024600023F2E9CF24F2800EE56E020EE56E210E16
:10247000E56E96EC11F0036EF3CF04F0F4CF05F0A7
:10248000E9CF06F0030EE12603C0E5FF04C0F4FF28
:1024900005C0F6FF06C0F7FF00C0E9FF01C0F3FF6B
:1024A000025016EC17F000C0E9FF01C0F3FF025024
:1024B00050EC16F0F3CF01F0F4CF02F0E9CF03F0C7
:1024C00003C0E9FF02C0F4FF01C0F3FFE4CF06F050
:1024D000E4CF05F0E4CF04F0E4CF03F0E4CF02F062
:1024E000E4CF01F0E4CF00F0E4CFD9FF1200D9CF60
:1024F000E5FFE1CFD9FF00C0E5FF01C0E5FF02C065
:10250000E5FF03C0E5FF04C0E5FF05C0E5FF06C029
:10251000E5FF07C0E5FF08C0E5FF020EDBCF00F0D6
:10252000030EDBCF01F0040EDBCF02F0050EDBCF94
:1025300003F0C0EC15F0046EF3CF05F0F4CF06F015
:10254000E9CF07F0E86A03BEFF0E086EE56E08509B
:10255000E56E0350E56E0250E56E0750E56E0650DD
:10256000E56E0550E56E0450E56E79EC0BF0026EF9
:10257000F3CF03F0080EE1260050025E0150035A2B
:1025800003C0F3FF0250E4CF08F0E4CF07F0E4CF3C
:1025900006F0E4CF05F0E4CF04F0E4CF03F0E4CF9D
:1025A00002F0E4CF01F0E4CF00F0E4CFD9FF120055
:1025B000D9CFE5FFE1CFD9FF00C0E5FF01C0E5FFBE
:1025C00002C0E5FF03C0E5FF04C0E5FF05C0E5FF6D
:1025D00006C0E5FF07C0E5FF020EDBCF00F0030EEB
:1025E000DBCF01F0040EDBCF02F0050EDBCF03F0F2
:1025F000046A056A100E066E0150800BE844076EEF
:102600000050002601360450042605360750D8A491
:1026100004800350055C02E10250045C05E30250B3
:10262000045E0350055A00800604076E07C006F0DA
:102630000750E2E101C0F3FF0050E4CF07F0E4CF20
:1026400006F0E4CF05F0E4CF04F0E4CF03F0E4CFEC
:1026500002F0E4CF01F0E4CF00F0E4CFD9FF1200A4
:10266000D9CFE5FFE1CFD9FF00C0E5FF01C0E5FF0D
:1026700002C0E5FF03C0E5FF020EDBCF00F0030E52
:10268000DBCF01F0026AF2BE022A036AF2BC032A1F
:102690000350022602C003F0025002E0F29EF29CB8
:1026A000030E015C02E1E90E005C1CE3E56A030E27
:1026B000E56E0150E56E0050E56ED8EC12F0006E4C
:1026C000F3CF01F0040EE1260150E56E0050E56EF7
:1026D000E56A050EE56EDBEC13F0006EF3CF01F05A
:1026E000040EE126FF0E0026012200500110FAE13F
:1026F000035002E0F28EF28CE4CF03F0E4CF02F05C
:10270000E4CF01F0E4CF00F0E4CFD9FF1200D9CF3D
:10271000E5FFE1CFD9FF00C0E5FF01C0E5FF02C042
:10272000E5FF03C0E5FF04C0E5FF020EDBCF00F0CC
:10273000040E016E150E0124026E036A020E0322BE
:1027400002C0E9FF03C0EAFFEFCF02F001C003F0CF
:10275000046AFC0E0326D8A004060350E96E00C0EC
:1027600003F0E9500BE006E6E86CD8900332010F65
:10277000FDE304D0D8900336010FFDE3010E0316EC
:102780000350E56E0250E56E76EC08F0E652E65234
:10279000012A080E015CCEE330EC16F0E4CF04F021
:1027A000E4CF03F0E4CF02F0E4CF01F0E4CF00F097
:1027B000E4CFD9FF1200D9CFE5FFE1CFD9FF00C0A8
:1027C000E5FF01C0E5FF02C0E5FF03C0E5FF020E23
:1027D000DBCF00F0030EDBCF01F0040EDBCF02F005
:1027E000050EDBCF03F0005002013D6F01503E6F3C
:1027F000025002013F6F0350406F02013D51020140
:102800003F03F4CF01F0F3CF00F000500201416F1D
:102810000150426F02013D5102014003F3CF00F02D
:1028200002013E5102013F03F3CF01F001500026A7
:102830000201425100260050426F42C2F3FF415153
:10284000E4CF03F0E4CF02F0E4CF01F0E4CF00F0F6
:10285000E4CFD9FF120011EEFFF021EEFFF0F86A8D
:10286000A68EA69CEC0EF66E2E0EF76E000EF86E7F
:102870000900F5CF05F00900F5CF06F034D00900C6
:10288000F5CF00F00900F5CF01F00900F5CF02F017
:1028900009000900F5CFE9FF0900F5CFEAFF0900BB
:1028A00009000900F5CF03F00900F5CF04F0090095
:1028B0000900F6CF07F0F7CF08F0F8CF09F000C015
:1028C000F6FF01C0F7FF02C0F8FF03D00900F5CF03
:1028D000EEFF0306FBE20406F9E207C0F6FF08C0BC
:1028E000F7FF09C0F8FF0506CAE20606C8E2C3EC16
:1028F00016F0FFD7D9CFE5FFE1CFD9FF00C0E5FF44
:1029000001C0E5FF02C0E5FF020EDBCF00F0030EC1
:10291000DBCF01F002011D6B400E1E6F140E1F6F06
:10292000540E206F02014A51010A07E1140E020100
:102930001E6F280E1F6F3C0E206F026A1D0E0126AF
:10294000020E022201C0E9FF02C0EAFFEFCF01F050
:1029500001500026008EE56A0050E56E2FEC15F060
:10296000E652E652E4CF02F0E4CF01F0E4CF00F00B
:10297000E4CFD9FF1200D9CFE5FFE1CFD9FF00C0E6
:10298000E5FF01C0E5FF02C0E5FF03C0E5FF020E61
:10299000DBCF00F0016A150E0124026E036A020EFD
:1029A000032202C0E9FF03C0EAFFEFCF02F000C03C
:1029B00003F0015005E0E86CD8900332010FFDE30D
:1029C000010E03160350E56E0250E56E76EC08F03A
:1029D000E652E652012A080E015CDDE330EC16F007
:1029E000E4CF03F0E4CF02F0E4CF01F0E4CF00F055
:1029F000E4CFD9FF1200D9CFE5FFE1CFD9FF00C066
:102A0000E5FF01C0E5FF02C0E5FF03C0E5FF020EE0
:102A1000DBCF00F0030EDBCF01F0040EDBCF02F0C2
:102A200000C0E9FF01C0F3FF025027EC17F0036E6E
:102A300003500AE0002A02E3014A022A0350E56E2D
:102A4000D9EC16F0E652ECD7E4CF03F0E4CF02F075
:102A5000E4CF01F0E4CF00F0E4CFD9FF1200D9CFEA
:102A6000E5FFE1CFD9FF00C0E5FF01C0E5FF020EA1
:102A7000DBCF00F0030EDBCF01F00150E56E020169
:102A80004851E56E76EC08F0E652E652020149A99B
:102A900006D00050E56EBBEC14F0E6520BD00038C7
:102AA0000F0BE56E87EC13F0E6520050E56E87ECF5
:102AB00013F0E652E4CF01F0E4CF00F0E4CFD9FF09
:102AC0001200D9CFE5FFE1CFD9FF00C0E5FF01C07B
:102AD000E5FF02C0E5FF03C0E5FF020EDBCF00F01B
:102AE000030EDBCF01F0D88001AED89009E300508F
:102AF000026E0150036E031E026CD8B4032A04D088
:102B000000C002F001C003F003C0F3FF0250E4CFA5
:102B100003F0E4CF02F0E4CF01F0E4CF00F0E4CF23
:102B2000D9FF1200D9CFE5FFE1CFD9FF00C0E5FF03
:102B300001C0E5FF02C0E5FF020EDBCF00F0030E8F
:102B4000DBCF01F0040EDBCF02F00250E56EE56A48
:102B5000E56A0150E56E0050E56E000EE56E2D0E43
:102B6000E56EB20EE56E02EC06F0080EE126E4CF4B
:102B700002F0E4CF01F0E4CF00F0E4CFD9FF12007F
:102B800000C0E5FF01C0E5FF02C0E5FF03C0E5FFAF
:102B9000800EE56E020EE56E110EE56E96EC11F0FC
:102BA000006EF3CF01F0F4CF02F0E9CF03F0030E93
:102BB000E12603C0E9FF02C0F4FF01C0F3FF0050AB
:102BC000E4CF03F0E4CF02F0E4CF01F0E4CF00F073
:102BD000120001020408102040804080010204011C
:102BE00002040820010204010204081020408010A1
:102BF00001010101010101010202020202000000C3
:102C00000000040404030303030303030300486FE9
:102C10006C6120736F7920457269636B00001C0E34
:102C2000E56E1B0EE56E1A0EE56E190EE56E180EBA
:102C3000E56E170EE56E160EE56E150EE56E090EC5
:102C4000E56E080EE56EB0EC0DF00A0EE126020E00
:102C5000E56E100EE56E3FEC0CF0E652E652120007
:102C6000010EE56E02014751E56E76EC08F0E65282
:102C7000E652E56A010EE56E30EC13F0E652E652DC
:102C8000E56A02014751E56E76EC08F0E652E6523D
:102C9000E56A320EE56E30EC13F0E652E6521200B1
:102CA000E8AE0AD0F3CFEAFFEE50EECFF3FFEECF5F
:102CB000F4FFEECFE9FF1200E8BC89EF17F0E9CF8F
:102CC000F6FFF3CFF7FFF86E0900F5500900F5CFD6
:102CD000F3FF0900F5CFF4FF0900F5CFE9FF12007B
:102CE00048EC17F0000EE56E2C0EE56E0E0EE56E4C
:102CF000FBEC14F0030EE126010EE56E000EE56A12
:102D00007AEC14F0E652E6520A0EE56E070EE56E16
:102D1000DA0EE56E92EC15F0030EE1261200F2CF0A
:102D2000EAFFF29EA69EA69CA684E9CFA9FFE4CF67
:102D3000A8FF6EEC17F0F4CFA8FF6EEC17F0F6CFFB
:102D4000A8FF6EEC17F0F7CFA8FF6EEC17F0A69473
:102D5000EABEF28E1200F2CFF6FFF29EA69EA69C6D
:102D6000E9CFA9FFA680A850A92AA680A8CFF3FF83
:102D7000A92AA680A8CFF4FFA92AA680A8CFEAFF97
:102D8000F6BEF28E1200D08ED0B202D0D082D080A9
:102D9000D350030B800F7E0F02E3D3A4FED7EFECDA
:102DA00016F082EC17F00FEC16F070EC16F0FDD771
:102DB0001200D9CFE5FFE1CFD9FF00C0E5FF020E39
:102DC000DBCF00F0010EE56E0050E56E2FEC15F044
:102DD000E652E652E4CF00F0E4CFD9FF1200896A50
:102DE0008A6A8B6A8C6A8D6A926A936A94909492CA
:102DF0009494949C949E956A966A806A816A826A89
:102E0000836A846A1200D9CFE5FFE1CFD9FF020EB1
:102E1000DBCF11F2030EDBCF12F2040EDBCF13F285
:102E2000050EDBCF14F2E4CFD9FF1200E8AE0BD0D1
:102E3000F3CFEAFFE4CFEEFFF4CFEEFFF6CFEEFFE5
:102E4000F7CFEEFF1200E8BC8BEF17F01200E8AEF0
:102E500004D0F3CFEAFFEE501200E8BC87EF17F082
:102E6000E9CFF6FFF3CFF7FFF86E0900F550120037
:102E7000F2CFEAFFF29EA69EA69CA684E9CFA9FF08
:102E8000E4CFA8FF6EEC17F0A694EABEF28E120013
:102E9000E56A020EE56E2FEC15F0E652E652E56AA1
:102EA000050EE56EFBEC0CF0E652E6521200F2CF96
:102EB000F6FFF29EA69EA69CE9CFA9FFA680A85089
:102EC000F6BEF28E1200E8AE05D0F3CFEAFFE4CFF3
:102ED000EEFF1200E8BC8DEF17F01200550EA76E42
:102EE000AA0EA76EA682A6B2FED7A94A0100FA2EA4
:102EF00000000C02000009000000006CDC02000170
:102F0000000000000F0EC16E070EB46E120057EFE6
:0E2F100017F0ABEF16F08FEF16F038EF17F05A
:00000001FF
